:020000040800F2
:100000001033002065010008671C0008E319000890
:10001000651C0008EB020008F53300080000000032
:10002000000000000000000000000000BB1D0008F0
:100030007D03000800000000051D0008C91D000820
:100040007F0100087F0100087F0100087F01000890
:100050007F0100087F0100087F0300087F0100087E
:100060007F0100087F0100087F0100087F01000870
:100070007F0100087F0100087F0100087F01000860
:100080007F0100087F0100087F0100087F01000850
:100090007F0100087F0100087F0100088503000838
:1000A0007F0100087F0100087F0100087F01000830
:1000B0007F0100087F0100087F0100087F01000820
:1000C0007F0100087F0100087F0100087F01000810
:1000D0007F0100087F0100087F0100087F01000800
:1000E0007F0100087F0100087F0100080000000078
:1000F0000000000000000000000000000000000000
:1001000000000000000000007F0100087F010008DF
:100110007F0100087F0100087F0100087F010008BF
:100120007F0100087F0100087F0100087F010008AF
:100130007F01000800000000000000007F010008AF
:100140007F0100087F0100087F010008691C00088A
:10015000DFF80CD000F08CF8004800475B3C00084A
:10016000103300200648804706480047FEE7FEE7B8
:10017000FEE7FEE7FEE7FEE7FEE7FEE7FEE7FEE757
:10018000391E0008510100082DE9F05F05460020E6
:1001900092469B4688460646814640241BE02846F8
:1001A00041464746224600F020F853465A46C01AB8
:1001B000914110D311461846224600F04AF82D1AF4
:1001C00067EB01084F4622460120002100F041F86C
:1001D00017EB00094E41201EA4F10104DFDC484664
:1001E00031462A464346BDE8F09F202A04DB203AE8
:1001F00021FA02F00021704721FA02F3D040C2F147
:100200002002914008431946704740EA01039B07CA
:1002100003D009E008C9121F08C0042AFAD203E07B
:1002200011F8013B00F8013B521EF9D27047D2B2DF
:1002300001E000F8012B491EFBD270470022F6E7CF
:1002400010B513460A4604461946FFF7F0FF20464C
:1002500010BD202A04DB203A00FA02F1002070478A
:100260009140C2F1200320FA03F3194390407047F4
:10027000064C074D06E0E06840F0010394E80700F3
:1002800098471034AC42F6D3FFF766FF38400008B9
:100290005840000870B58C1810F8015B15F0070382
:1002A00001D110F8013B2A1106D110F8012B03E00F
:1002B00010F8016B01F8016B5B1EF9D12B0705D417
:1002C0000023521E0DD401F8013BFAE710F8013B60
:1002D000CB1A921C03E013F8015B01F8015B521E7C
:1002E000F9D5A142D8D3002070BDFEE700207047A9
:1002F0000020704710B5084C206801F099FE0022DC
:100300000649206801F0B6FE04492068403901F032
:10031000ABFE002010BD000060000020540E002045
:100320002DE9F041134D0E4607460146286801F0BD
:100330009BFE286801F07CFE0F4A1188C1F1C004C1
:10034000002C0EDD3068A04200D204460A48164652
:10035000801C084422463946FFF757FF3088204466
:10036000308029680020D1F8B812C1F80C02BDE82D
:10037000F081000060000020BC01002070470120D7
:1003800000F036B8202000F033B80146480980005C
:1003900000F1E020D0F8000101F01F0301229A4093
:1003A000104008B1012070470020FCE770470000B2
:1003B00070B5044600F018F90546601C02D00448E8
:1003C0000078044400F010F9401BA042FAD370BD3D
:1003D0009800002010B50446012C02D103490860A2
:1003E00003E0202C01D103F0BDFC10BD80000020F3
:1003F000044910B50A68024202D00860FFF7EAFF1C
:1004000010BD0000140401402DE9F84FDFF8A4915D
:10041000002409F1040A0AF1040B23464FF00F08E7
:100420000BF1040EBEE00127A7403A40BA4272D158
:10043000DFF884C14D68A5EB0C0665452BD00DDCBB
:10044000032D34D005DC35B3012D19D0022D2FD169
:100450001BE0112D16D0122D2AD119E0B6F5881FF8
:1004600019D006DCB6F5803F15D0B6F5801F1FD138
:1004700011E0B6F5001F0ED0B6F5041F18D10AE042
:10048000CB6815E0CB681B1D12E0CB6808330FE08A
:10049000CB680C330CE08B682BB1012B4FF00803B9
:1004A00003D0476104E0042302E0076100E0002379
:1004B000FF2A01D8064601E000F104064FEA840550
:1004C00001D9A5F12005376808FA05FC27EA0C07D1
:1004D00003FA05F547EA050737604D68ED0060D57A
:1004E000364DAE6946F00106AE61AD6924F00306F3
:1004F00005F001050095324D7719BE68A5072D0F4F
:1005000008FA05FC26EA0C06DFF8B8C0604503D1FE
:100510004FF0000C17E044E0DFF8ACC0604502D1BA
:100520004FF0010C0FE0DFF8A4C0604502D14FF09E
:10053000020C08E0DFF898C0604502D14FF0030CD0
:1005400001E04FF0040C0CFA05FC4CEA060CC7F86D
:1005500008C04D68D9F80060ED034D4601D516433B
:1005600000E096432E604D68DAF80060AD03554612
:1005700001D5164300E096432E604D68DBF800601D
:10058000ED025D4601D5164300E096432E604D68AE
:10059000DEF80060AD02754601D5164300E09643D3
:1005A0002E60641C0A6832FA04F57FF43CAFBDE8A3
:1005B000F88F0000000401400000111000100240FC
:1005C0000000014000080140000C01400010014003
:1005D000001401408068084000D0012070470AB133
:1005E000016170470904FBE701488068704700001B
:1005F00098000020024881680278114481607047A9
:1006000098000020074810B5016841F01001016012
:10061000032000F083F8052000F006F800F024F82D
:10062000002010BD0020024070B50D4D04464FF46F
:100630007A712878B1FBF0F00A490968B1FBF0F053
:1006400001F0BBF948B9102C07D200222146501EF8
:1006500000F044F800206C6070BD012070BD000007
:1006600098000020A40000200B4808B5816941F0E3
:1006700001018161816901F001010091C16941F0CD
:100680008051C161C069054900F080500090486800
:1006900020F0E060486008BD00100240000001400A
:1006A00000280DDB00F01F0201219140400980006D
:1006B00000F1E020C0F88011BFF34F8FBFF36F8FC0
:1006C0007047002809DB00F01F020121914040091A
:1006D000800000F1E020C0F800117047F0B40E4B2C
:1006E0001B68C3F30223C3F10704042C00D90424BC
:1006F0001D1D072D01D2002300E0DB1E012606FA96
:1007000004F56D1E0D409D409E40761E164045EA44
:100710000601F0BC02F06FBE0CED00E0064A00F0EE
:10072000070110684FF6FF03184040EA0120034913
:1007300008431060704700000CED00E00000FA056F
:100740000068416200207047F0B50368586A39B10B
:100750009C6A4FF4827500EB144400204E1E0AE0A0
:1007600040EA024098620FE005EB8007DF59401C29
:1007700004EB1744C0B2B042F6D344EA02404FF44F
:10078000807202EB810158500020F0BDD0F8FC03CC
:1007900001F005BFC1EBC10200EB8202D0F8FC03FF
:1007A000926C01F058BEC1EBC10200EB8202D0F89E
:1007B000FC03D2F8082201F0B1BED0F8FC0301F02E
:1007C000F0BE70B504460B0601F00F00C0EBC0018F
:1007D00004EB81014FF001024FF0000503D581F8D1
:1007E0003D203C3103E081F8FD5101F5FE710870B8
:1007F00094F8BC03012808D084F8BC23206802F0D8
:100800002FFA84F8BC53002070BD022070BD70B573
:10081000044601F00F006268904201D9012070BDCA
:100820000B0601F00F01C1EBC10104EB81014FF098
:1008300001024FF0000503D581F83D203C3103E073
:1008400081F8FD5101F5FE718D70087094F8BC03BC
:10085000012808D084F8BC23206802F089FB84F8C2
:10086000BC53002070BD022070BD01F00F01C1EB30
:10087000C10100EB8100D0F8140270472DE9F0416E
:1008800004460F0601F00F00C0EBC00104EB81012C
:100890004FF001064FF0000503D581F83D603C3173
:1008A00003E081F8FD5101F5FE7108708A60CB709C
:1008B0004A7802B1C880022B00D10D7194F8BC03B4
:1008C000012809D084F8BC63206802F035F9284675
:1008D00084F8BC53BDE8F0810220FBE770B50D46FB
:1008E00001F00F04C4EBC40100EB8101C1F8082240
:1008F0000022C1E9843281F8FD2181F8FC410068C1
:1009000001F5FE712A0703D002F08AFB002070BDBA
:1009100002F096FAFAE770B504460D4601F00F00B2
:100920006168884201D9012070BD29064FF0000698
:100930004FF0010207D5C0EBC00104EB810181F843
:100940003D203C3107E0C5EBC50104EB810181F896
:10095000FD6101F5FE718A70087094F8BC030128EE
:1009600007D084F8BC23206802F02EFB280702D0B1
:1009700006E0022070BD04F57171206802F0D6FA1D
:1009800084F8BC63002070BD70B50D4601F00F0403
:10099000C4EBC40100EB81018A640022C1E9143276
:1009A000012281F83D2001F83C4F00682A0703D05E
:1009B00002F036FB002070BD02F042FAFAE70000B8
:1009C0002DE9F05F05680446284602F027FC002860
:1009D0007ED1206802F04EFC002879D0206802F019
:1009E00049FC800704D52068416901F0020141619A
:1009F000206802F03FFC000360D50026206802F06A
:100A000018FC8046DFF898934FF4004A4FF0200B13
:100A100051E05FEAC8704BD0F1B2206802F022FCCE
:100A20000746C00719D005EB46110120C1F8080B95
:100A3000216820460B6C01EB4611D1F8082B4B4581
:100A400008D1130402D5C1F808AB06E0920601D51F
:100A5000C1F808BBF1B2FFF7A6FE380713D520682E
:100A6000016C00EB4610D0F8082B494503D1110466
:100A700001D5C0F808AB204600F065FA05EB461139
:100A80000820C1F8080BF80604D505EB4611102024
:100A9000C1F8080BB80603D505EB4611C1F808BB31
:100AA000B80405D505EB46104FF40051C0F8081BFB
:100AB0004FEA5808761CB8F1000FAAD1206802F05E
:100AC000D9FB40034BD5206802F0ACFB804600E028
:100AD00064E1002640E05FEAC8703AD0F1B22068D5
:100AE00002F0AEFB0746C00711D006F00F0101224D
:100AF00002FA01F0D5F834188143C5F8341805EB33
:100B00004610C0F80829F1B22046FFF743FE380727
:100B100004D505EB46110820C1F80809F80604D5EC
:100B200005EB46111020C1F80809780604D505EB3D
:100B300046104021C0F80819B80704D505EB461047
:100B40000221C0F80819380603D53146204601F0C5
:100B500091F84FEA5808761CB8F1000FBBD1206815
:100B600002F088FB00280DDAD5F8040820F0010116
:100B7000C5F80418204600F0CAF92068416901F060
:100B800000414161206802F075FB00050BD5D5F8E6
:100B90000808C00702D0204600F0F2F92068416939
:100BA00001F400614161206802F064FBC10404F5B6
:100BB000717858D5D5F8040820F00101C5F804185B
:100BC0001021206802F00CFB00214FF67F3212E06A
:100BD00005EB4110C0F80829D0F8003923F40013C0
:100BE000C0F80039C0F8082BD0F8003B23F40013FC
:100BF000C0F8003B491C60688842E9D8D5F81C0859
:100C000040F00111C5F81C18206B002828460DD0B3
:100C1000D0F8840840F00B01C5F88418D5F84408D2
:100C200040F00B012846C5F844180DE0D0F8140830
:100C300042F22B010843C5F81408D5F8100840F01B
:100C40000B012846C5F81018D0F8000820F4FE6102
:100C5000C5F800184146206802F068F9206841692B
:100C600001F480514161206802F004FB800415D535
:100C7000206801F0A1FF206802F0C4FAE06000F0F3
:100C8000F9FA0146227B206802F030FB204600F092
:100C90002BF92068416901F400514161206802F09C
:100CA000E9FAC00634D52068816921F0100181611C
:100CB0002F6A07F00F00C0EBC00004EB8006C7F3FB
:100CC000434006F5FE76022802D0062811D01AE02D
:100CD00047F6F070074216D0C7F30A1217462846A7
:100CE000F16802F0CBFAF0683844F060B06938443B
:100CF00008E008224146284602F0C0FAB069C7F36E
:100D00000A110844B0612068816941F010018161D5
:100D1000206802F0AFFA000707D5204600F0FBF884
:100D20002068416901F008014161206802F0A2FADF
:100D3000C00208D50021204600F034F8206841693F
:100D400001F480114161206802F094FA800208D514
:100D50000021204600F02AF82068416901F40011C2
:100D60004161206802F086FA400007D52046FFF76F
:100D70000DFD2068416901F080414161206802F069
:100D800079FA40070AD520684568680702D52046E9
:100D9000FFF713FD2068416829434160BDE8F09FDB
:100DA0000A31544FD0F8FC0301F046BCD0F8FC03E4
:100DB00001F044BC2DE9F0418AB0040005D094F85C
:100DC000BD032668002520B108E001200AB0BDE877
:100DD000F08184F8BC53204600F05EF8032084F8CC
:100DE000BD03F06BC00500D42561206802F022F835
:100DF00004F11001282288466846FFF706FA94E8B5
:100E00000F0001F0E7FE0227C8BB0021206802F0B6
:100E100044FA002101260EE0C1EBC10004EB800082
:100E200080F83D6000F83C1FC180C5708560C560DA
:100E3000491CC9B2456160688842EDD8002111E0C3
:100E4000C1EBC10004EB800080F8FD5180F8FC117B
:100E500080F8FF51C0F80452C0F80852491CC9B2CA
:100E6000C0F8105260688842EAD828224146684695
:100E7000FFF7CBF994E80F0001F04AFF10B184F8B6
:100E8000BD73A2E784F8385084F8BD63206801F090
:100E900033FF00209AE7000010B586B000210091D2
:100EA0000191029103910068B0F1A04F16D10C4C52
:100EB000A06940F00400A061A069694600F0040048
:100EC0000490601500900748FFF79EFA606940F4AF
:100ED00080506061606900F48050049006B010BDDD
:100EE000001002400008014070B50446C0680125AA
:100EF000022801D0FFF75AFA2946D4F8FC0301F082
:100F0000F2FBD4F8FC03BDE8704001F0AEBBD0F8B2
:100F1000FC0301F0D2BBD0F8FC0301F0D8BB10B544
:100F2000044690F8BC0301280BD0012084F8BC03D0
:100F300084F83810206802F0C7F9002084F8BC0358
:100F400010BD022010BDD0F8FC2300F571711046D1
:100F500001F0D5BB10B5044690F8BC0301280CD0B5
:100F6000012084F8BC03206801F0BAFE206802F07A
:100F700021F9002084F8BC0310BD022010BD000040
:100F800010B50446D0F8FC0301F0F8FB2068D0F857
:100F9000001E41F00101C0F8001E206A002804D0A4
:100FA0000248016841F00601016010BD10ED00E04B
:100FB0002DE9F84F044600785C4D4FF00008C0075B
:100FC0004FF0010A4FD0E8690026C00008D4E86954
:100FD00040F08050E861E869012600F08050009000
:100FE00053480168C90511D40168814641F48071F4
:100FF0000160FFF7F9FA074604E0FFF7F5FAC01BB6
:10100000642879D8D9F80000C005F6D5286A10F40C
:1010100040701DD0A18801F44071814218D0286A27
:10102000444920F44070C1F800A000220A60286200
:10103000C0070DD0FFF7D8FA074641F2883904E01F
:10104000FFF7D2FAC11B494556D8286A8007F7D561
:10105000286A616820F44070084328621EB1E8697C
:1010600020F08050E8612078800705D56868A16885
:1010700020F44040084368602078400705D5E86ABE
:10108000E16820F400300843E8622078000705D5C5
:10109000E86A216920F480200843E862E86A800356
:1010A00005D4E86A400302D4B8F1000F33D02868B1
:1010B000C00028D42868400105D5E86AA16900F07D
:1010C000F000884225D1E86AA16920F0F0000843C9
:1010D000E862E86A616920F470400843E8621649F2
:1010E000C1F870A0FFF780FA064608E004E0FFF7B9
:1010F0007BFA801B642802D90320BDE8F88F28689A
:101100008000F4D507E0E86A616900F47040884225
:1011100001D00120F1E72078C00605D56868E169B3
:1011200020F48000084368600020E6E700100240D9
:101130000070004040044242000042422DE9F04766
:101140000D46040067D0DFF81881D8F8000000F0E1
:101150000700A8420CD2D8F8001021F0070129435B
:10116000C8F80010D8F8000000F00700A84252D1DB
:1011700020683C4E810712D5400703D5706840F4C3
:10118000E06070602078000703D5706840F460501C
:1011900070607068A16820F0F000084370602078EB
:1011A000C00727D06068012810D03168022810D00D
:1011B000890700292FDA716821F00301014371606A
:1011C000FFF712FA074641F288390CE031688903CB
:1011D000EFE78901EDE7FFF707FAC11B494502D99F
:1011E0000320BDE8F0877068616800F00C00B0EB88
:1011F000810FF0D1D8F80010404601F00701A94254
:101200000BD9016821F0070129430160006800F053
:101210000700A84201D00120E3E72078400705D568
:101220007068E16820F4E06008437060207800078F
:1012300006D57068216920F4605040EAC1007060F2
:1012400000F01EF87168084AC1F30311515CC840F0
:101250000649086006480068FFF7E6F90020C0E785
:10126000002002400010024026400008A400002098
:101270009C0000200148006870470000A400002086
:10128000F0B524A089B00FC88DE80F0025A004ACEC
:101290000FC884E80F00274B586800F00C010429A0
:1012A00004D0082904D0244809B0F0BD2348FBE746
:1012B000C0F38342C0031DF8024028D5D86A04A9B0
:1012C00000F00F00085CD96AC90316D5D96AC1F3CA
:1012D0000312D96A521CC1F30321891CA2FB00230B
:1012E000A1FB0417154D0026A1FB050C07FB05C546
:1012F00001FB0651FEF748FF03E010496143B1FBD3
:10130000F0F09DF80D10A142CED14008CCE70C487A
:101310006043C9E700000405060708090000000053
:10132000000D00000102030405060708090A0B0C62
:101330000D0E0F100010024000127A00001BB700C3
:1013400000093D002DE9F84F04006ED02078ED4DE6
:10135000C00747D06868C0F38100012807D06868DB
:10136000C0F38100022809D16868C00306D5286847
:10137000800337D5A0680028E7D033E0A068B0F537
:10138000803F0BD010B1B0F5A02F11D0286820F409
:1013900080302860286820F4802002E0286840F42B
:1013A00080302860A06888B1FFF71EF9064609E082
:1013B000286840F480202860F0E7FFF715F9801BCB
:1013C000642874D828688003F7D50BE0FFF70CF980
:1013D000064604E0FFF708F9801B6428F1D8286866
:1013E0008003F7D42078C84E80074FF0010A4FF0F1
:1013F00000073AD5686810F00C0F07D06868C0F392
:101400008100022809D16868C00306D428688007D3
:1014100015D56069012808D111E06069B8B1C6F836
:1014200000A0FFF7E1F8804606E041E1FFF7DCF8B5
:10143000A0EB08000228C4D828688007F6D52868E1
:10144000A16920F0F80040EAC10028600DE0376093
:10145000FFF7CAF8804605E0FFF7C6F8A0EB0800E2
:101460000228AED828688007F6D4207800072DD54A
:10147000A648E169E1B1C0F800A0FFF7B5F88046E1
:1014800005E0FFF7B1F8A0EB0800022899D8686AD8
:101490008007F6D59E484FF4FA510068B0FBF1F092
:1014A000009000BF0098411E0091FAD20EE0B1E01A
:1014B0000760FFF799F8804605E0FFF795F8A0EB85
:1014C000080002288AD8686A8007F6D42078400786
:1014D00062D5E8694FF00009C00009D4E86940F01E
:1014E0008050E861E8694FF0010900F080500090F9
:1014F00088480168C90512D40168834641F48071A7
:101500000160FFF771F8804605E0FFF76DF8A0EB8A
:10151000080064287ED8DBF80000C005F5D52069F6
:1015200001280AD008B1052813D0286A20F001004C
:101530002862286A20F0040002E0286A40F00100D6
:101540002862206941F2883B90B1FFF74DF8804650
:101550000AE0286A40F004002862EEE7FFF744F84A
:10156000A0EB0801594555D8286A8007F6D50CE04C
:10157000FFF73AF8804605E0FFF736F8A0EB0801E0
:10158000594547D8286A8007F6D4B9F1000F03D02F
:10159000E86920F08050E861E06AE0B36968C90357
:1015A00007D56968C1F38101022902D1E96AC9033B
:1015B0007ED4022808D0E86A20F48030E862B7665A
:1015C000FFF712F880463BE02868C00005D5E86ABE
:1015D000616B00F0F00088426AD1B766FFF704F84B
:1015E000804605E0FFF700F8A0EB0800642871D8FA
:1015F00028680001F6D4E86A616B20F0F000084327
:10160000E862E86A216B20F470600843E862C6F87B
:1016100068A001E05EE016E0FEF7E6FF804605E028
:10162000FEF7E2FFA0EB0800642853D82868000109
:10163000F6D508E0FEF7D8FFA0EB0800642849D8EB
:1016400028680001F6D4206A98B36968C1F3810163
:10165000022946D00228376603D0FEF7C5FF0446AC
:101660003BE0FEF7C1FF074604E0FEF7BDFFC01BED
:1016700002282FD828688001F7D4606AB0F5803F2F
:1016800009D1E86A61680843E862E86AE16820F025
:101690000F000843E862D4E909010843696821F4AE
:1016A000741108436860C6F860A0FEF79DFF01E072
:1016B00024E025E0044604E0FEF796FF001B022824
:1016C00008D828688001F7D51AE0FEF78DFF001BC7
:1016D000022802D90320BDE8F88F28688001F4D4DD
:1016E0000EE00128F7D06868626A00F48031914208
:1016F00004D1A16A00F47010884201D00120EAE709
:101700000020E8E70010024000004242800442420C
:10171000A40000200070004090F85100704770B5A0
:10172000040005D00025A56294F8510010B106E030
:10173000012070BD84F85050204600F02FF80220A0
:1017400084F851002068016821F040010160D4E96B
:1017500001010843D4E903121143084361690843B6
:10176000218B01F400710843E1690843216A0843B1
:10177000A16A084321680860A069042101EA1040B9
:10178000216848602068C16921F40061C161656514
:10179000012084F85100002070BD000030B585B0F4
:1017A00000240094019402940394274D0168274873
:1017B00002220323A9421ED1816941F48051816133
:1017C000816901F480510491816941F004018161D2
:1017D00080691F4D00F004000490A020CDE90002B4
:1017E000694603932846FEF70FFE4021CDE9001419
:1017F0000120029021E0174DA94222D1C16941F494
:101800008041C161C16901F480410491816941F065
:10181000080181618069104D00F0080004904FF4C8
:101820002040CDE90002694603932846FEF7ECFD0F
:101830004FF48040CDE90004029469462846FEF743
:10184000E3FD05B030BD0000003001400010024053
:101850000008014000380040000C01402DE9F84F1D
:10186000044690F8500000261D46904689460128FF
:101870000ED04FF0010B84F850B0FEF7B5FE0746CE
:1018800094F851004146B246012804D002268EE069
:101890000220BDE8F88FB9F1000F6FD0B8F1000F4A
:1018A0006CD0032084F85100C4F854A0C4F83090E0
:1018B000A4F83480A4F83680C4F838A0A4F83CA07A
:1018C000A4F83EA0C4F844A0C4F840A0A068B0F5B5
:1018D000004F04D12068026842F480420260206810
:1018E0000268520603D4026842F040020260E068D7
:1018F000B0F5006F606803D028B3012923D03FE022
:1019000008B101291BD1206B21680088C86006E05E
:1019100020688168890709D5216B0988C160206B1F
:10192000801C2063E08E401EE08608E0FEF75CFE2F
:10193000C01BA84202D3681C01D02FE075B3E08E13
:101940000028E5D11FE0206B21680078087306E0CD
:1019500020688168890709D5216B09780173206B9C
:10196000401C2063E08E401EE08609E0FEF73CFE4E
:10197000C01BA84203D3681C02D00FE016E06DB173
:10198000E08E0028E4D13A462946204600F0BBF913
:1019900008B120206065A06810B105E0032606E0CC
:1019A0002068C16880680090606D00B1012684F8ED
:1019B00051B084F850A030466BE710B5401EB0F12E
:1019C000807F01D3012010BD4FF0E02460610F2122
:1019D000601701F010FD0020A061072020610020A9
:1019E00010BDFEE7F0B500230A24302537261F4638
:1019F00010E0B4EB107F02D905EB107C01E006EBA0
:101A0000107C01F813C001EB430C00015B1C8CF847
:101A10000170DBB29342ECD3F0BD00002DE9F04F32
:101A200085B000245848009401940294039481697D
:101A300041F010018161816901F010010491816917
:101A400041F020018161816901F0200104918169E7
:101A500041F004018161816901F00401049181690F
:101A600041F0080181618069DFF820A100F00800E1
:101A70000490012210215046FEF7B1FD012241F2EF
:101A800001014348FEF7ABFD00224FF4406140489E
:101A9000FEF7A5FDDFF8FCB04FF47079002249464F
:101AA0005846FEF79CFD4FF47C400325CDE9000528
:101AB00069465846FEF7A8FC3F20CDE90004694678
:101AC00058460294FEF7A0FC0126334F0096CDE95C
:101AD000017469465046FEF797FC4FF48770CDE9D4
:101AE000000569465046FEF78FFC1020CDE9000640
:101AF00069465046CDE90245FEF786FC01AA112051
:101B0000009682E8310069462148FEF77DFC40F2EC
:101B1000C230CDE9000569461D48FEF775FC4FF05F
:101B20000408CDE90084694619480294FEF76CFC6C
:101B30004FF4E050CDE9000669461548CDE902456D
:101B4000FEF762FCCDE9009669465846CDE90245AC
:101B5000FEF75AFCB002CDE90004694650460294F3
:101B6000FEF752FCCDE9008569460C48FEF74CFCB7
:101B70002020CDE900070220029069460448FEF7C4
:101B800043FC05B0BDE8F08F0010024000080140A2
:101B9000000C014000100140000011100014014031
:101BA0000C480B494FF4007201604FF482714160A0
:101BB00000218160C1600161C0E905122022C0E9F5
:101BC0000721416281620A21C162FFF7A8BD0000BE
:101BD00000300140800200200C480B4902220160C5
:101BE0004FF48271416000218160C0E9031201223B
:101BF0004261520282613022C0E907214162816262
:101C00000A21C162FFF78BBD00380040D8020020D6
:101C100010B500220F49104800F0F6FB08B1FEF79E
:101C2000C5FB0E490C4800F0CFFD08B1FEF7BEFB26
:101C30000B49094800F010FA08B1FEF7B7FB064857
:101C400000F018FE002803D0BDE81040FEF7AEBB40
:101C500010BD00000000002030030020840100209F
:101C600050000020FEE770470148FEF7A9BE0000C3
:101C7000140800202DE9F0470E46C1EBC60100EB29
:101C80008104D0F80080D4E914103C34884202D991
:101C90000120BDE8F087081AA168814200D20846F9
:101CA000C01C870808EB461912E0451AA068A84234
:101CB00000D20546E81C8708ABB2F2B24046E168A4
:101CC00001F088FBE0682844E060A0692844A06136
:101CD000D9F8180980B2B84205D3D4E90501814288
:101CE00001D20028E1D1D4E90501884208D806F0E4
:101CF0000F0101208840D8F834188143C8F83418FF
:101D00000020C6E7704738B50B4600920446002213
:101D1000802100F008F8002804D0606D40F0200019
:101D20006065032038BD2DE9F0411D4617460E467B
:101D30000446DDF8188008E0681C06D0FEF754FC65
:101D4000A0EB0800A8420BD255B12068806836EAA3
:101D5000000030D00020B842EED10020BDE8F08174
:101D60002068416821F0E00141606068B0F5827F41
:101D70000BD1A068B0F5004F02D0B0F5806F04D150
:101D80002068016821F040010160A06AB0F5005FA1
:101D900009D12068016821F40051016020680168C0
:101DA00041F400510160012084F85100002084F8C2
:101DB00050000320D2E70120CDE7704710B504465C
:101DC0002046FEF7F5FA10BDFEF714BC70B59CB0C6
:101DD00038216846FEF732FA14210EA8FEF72EFAD3
:101DE000202113A8FEF72AFA012500242804CDE9B2
:101DF00002040226CDE908600095059501940001D2
:101E0000CDE90A046846FFF79DFA0F20CDE90E06DA
:101E1000A802CDE9104002210EA81294FFF78EF916
:101E2000102013901A9413A8FFF7C2F80148056711
:101E30001CB070BD000042421048016841F0010131
:101E4000016041680E4A1140416001680D4A11402D
:101E50000160016821F480210160416821F4FE01E4
:101E60004160016821F0A05101604FF47F01816061
:101E70000021C1620449C00308607047001002409D
:101E80000000FFF0FFFFF6FE08ED00E02DE9F04155
:101E9000D0F8C052D0F8B822DAB101EB810300EBE0
:101EA00083030026DC694CB1C1EBC10705EB870554
:101EB0006D6CB4FBF5F705FB174424B1C2F814624E
:101EC0000020BDE8F081DE6100231A4600F05FFCCF
:101ED000F6E70220F5E770B50546D0F8B84200F005
:101EE0006BFBC4F80C02D5F8B80248B1D5F8BC12A7
:101EF000D4F80402CA6804F503719047002070BD4D
:101F0000022070BD70B504460026812100F09AFAC7
:101F1000002501212046E56200F094FA8221204646
:101F2000C4F86C5100F08EFA2564D4F8B80248B1B8
:101F3000D4F8BC0204F52E7440688047206800F095
:101F4000F6FD2560304670BD10B5D0E9AE4159B1FF
:101F500094F80002FF2807D08B6894F801222146EC
:101F60009847FF2084F80002002010BD0A2101805C
:101F700000487047AC0000204321018000487047B2
:101F8000FC0000204321018000487047B800002079
:101F90004321018000487047400100202DE9F041B5
:101FA00004460026007C4FF40077012590B34023BF
:101FB00002228121204600F043FB4023E5620222F9
:101FC0000121204600F03CFB082303228221204609
:101FD000C4F86C5100F034FB4FF40770256400F036
:101FE000A7FDC4F8B802F8B10546D4F8BC020068F1
:101FF00080470021C5F81412C5F81812207CD5F8C6
:10200000042298B140230121204600F025FB3046F0
:10201000BDE8F081FFE73B4602228121204600F027
:102020000FFB3B46E562CAE70126F0E73B46EAE7DD
:1020300010B5D0F8B81269B1027C002AD1F8042298
:1020400005D04023012100F007FB002010BD4FF414
:102050000073F7E7022010BD02460220002902D0DB
:102060000020C2F8BC127047D0F8B802C0F80412C1
:1020700000207047D0F8B802C0F81022C0F808124B
:10208000002070472DE9FC410546D0F8B8720020C9
:102090008DF80000ADF80400064608780C4610F0F4
:1020A000600121D020293BD1E288AAB100066078E6
:1020B00007D5D5F8BC128B6839469847E28839466F
:1020C00026E087F80002A07987F80102E288394605
:1020D000284600F04FF828E0D5F8BC1260780022BE
:1020E0008B682146984720E0607820B10A2809D003
:1020F0000B2815D110E095F89C02032810D102227C
:1021000001A905E095F89C02032809D1012269463E
:10211000284600F049F808E095F89C02032804D00E
:102120002146284600F01BF802263046BDE8FC8117
:1021300010B5D0F8B42252689047002010BD134665
:1021400010B50A46002100F087FA002010BD1346A2
:1021500010B50A46002100F01AFB002010BD10B592
:102160000446802100F0F8FA2046BDE81040002126
:1021700000F0F2BA10B50323C0F85C21C0F8943225
:10218000C0F8602113460A46002100F065FA0020DD
:1021900010BD10B505210023C0F894121A46194647
:1021A00000F05AFA002010BD10B50223C261C0F839
:1021B0009432026213460A46002100F0E8FA002039
:1021C00010BD10B504210023C0F894121A46194618
:1021D00000F0DDFA002010BD10B50A46024903A048
:1021E00000F0E2F8004810BD140C002043444320E6
:1021F000436F6E66696700001220088000487047D0
:102200002000002010B50A46024903A000F0CCF8D7
:10221000004810BD140C002043444320496E7465EF
:102220007266616365000000042008800048704702
:102230001C00002010B50A46024903A000F0B4F8C3
:10224000004810BD140C002053544D6963726F6533
:102250006C656374726F6E696373000010B50A4633
:10226000024903A000F0A0F8004810BD140C0020A3
:1022700053544D3332205669727475616C20436F2C
:102280006D506F727400000010B51A2008800A4863
:102290000168001D0468001D0068081809D00822A4
:1022A0000649FFF79FFB0549042210312046FFF73E
:1022B00099FB0248801E10BDE8F7FF1F3600002082
:1022C000F8B504460020ADF8000048880D46010A24
:1022D000082948D2DFE801F04704091747473D4580
:1022E000D4F8B012207C0A6819E0207C022600286D
:1022F000D4F8B40205D0C16A6846884701464670E2
:102300003EE0816AF8E7C0B206282CD2DFE800F090
:10231000030B1115191DD4F8B002426806E0694696
:10232000904701462CE0D4F8B0028268DAB1207CF4
:10233000F5E7D4F8B002C268F8E7D4F8B002026951
:10234000F4E7D4F8B0024269F0E7D4F8B002826949
:10235000ECE7207C38B9D4F8B402416B6846884772
:10236000DFE7207C20B129462046FFF7F8FEF8BDC4
:10237000D4F8B402016B68468847014607204870CC
:10238000BDF8000048B1EA8852B1824200D9024645
:10239000ADF800202046FFF707FFE8880028E6D1C7
:1023A0002046FFF70EFFF8BD70B5002300281ED0B1
:1023B0000446002502E06D1CEDB2641C2678002E58
:1023C000F9D1022404EB450414801278CA545B1C32
:1023D0000322CA5400245B1C06E0CA545B1CDAB218
:1023E0008C54521CD3B2401C0278002AF5D170BD27
:1023F00001004FF0000004D0012901D0022901D0D2
:10240000022070470120704710B580B1D0F8B43277
:1024100013B10023C0F8B43209B1C0F8B0120121E1
:1024200080F89C12027000F0CBF8002010BD022052
:1024300010BD10B5D0F8C002FEF7E9F9BDE81040B4
:10244000FFF7D6BF10B5D0F8C002FEF7BAF9BDE865
:102450001040FFF7CDBF2DE9F0411746044651B1BA
:10246000D4F8B40242691AB194F89C02032851D0FE
:102470000220BDE8F081D4F89432002504F1140064
:10248000022B03D0042B3AD0C3B33CE0D0E9036362
:102490009E4207D9F11AC1608AB239462046FFF739
:1024A00056FE12E08068B0FBF3F103FB110199B90D
:1024B000984211D3D4F8981288420DD200221146C6
:1024C0002046FFF744FEC4F8985200231A461946E6
:1024D000204600F0C1F816E0D4F8B402C16829B172
:1024E00094F89C02032801D1204688478021204689
:1024F00000F032F92046FFF74CFE04E0FFE78021B0
:10250000204600F029F994F8A002012804D184F8AB
:10251000A05201E0204690470020AAE770B515467A
:10252000044649B1D4F8B40282691AB194F89C0205
:10253000032830D0022070BDD4F8941204F5AA709C
:10254000032902D005291ED027E0D0E903318B42B0
:102550000BD95B1AC3600846834200D303469AB284
:1025600029462046FFF7EBFD17E0D4F8B4020169D5
:1025700029B194F89C02032801D1204688472046BF
:10258000FFF71FFE09E000200146C4F89402204630
:1025900000F0E2F801E020469047002070BD0020E6
:1025A000704710B5012180F89C12D0F8B42201794F
:1025B00052689047002010BDD0F8C002FEF755B910
:1025C00010B5017821BB1349C1F8FC03C0F8C01253
:1025D0004FF0A0400860042048600220C86000203E
:1025E000C86108620120C8620846FEF7E3FB08B133
:1025F000FDF7DCFE80210748FEF7A2F8402200210B
:102600000448FEF7A1F8802201210248FEF79CF859
:10261000002010BD140800200A0601F07F01D0F848
:10262000C002C1EBC10100EB810002D590F83E0071
:10263000704790F8FE0170470020704700207047F7
:1026400010B51C461346D0F8C0022246FEF716F914
:10265000BDE81040FFF7CCBE10B5D0F8C002FEF7C1
:102660003DF9BDE81040FFF7C3BE70B50022044637
:1026700040231146FFF7E4FF40260125C4F86461BA
:102680003346002280212046C4F85851FFF7D8FF76
:102690006662A56184F89C520020C4F894026060D0
:1026A000C4F8A402D4F8B80228B1D4F8B4020021C6
:1026B000426820469047002070BD90F89C12042983
:1026C00003D190F89D1280F89C120020704710B53D
:1026D00090F89C12032904D1D0F8B412C96901B151
:1026E0008847002010BD01740020704710B5D0F855
:1026F000C002FEF714FCBDE81040FFF779BE70B5CC
:10270000044600F52A70054600F04AF80120C4F896
:102710009402B4F8AE02C4F8980294F8A82212F019
:102720001F000AD001280DD0022810D002F080012D
:10273000204600F011F8002070BD2946204600F028
:102740009EF8F8E72946204600F0CAF9F3E7294643
:10275000204600F01DF9EEE710B5D0F8C002FEF7F4
:10276000DAF8BDE81040FFF743BE10B5D0F8C0025C
:10277000FEF7F0FBBDE81040FFF73ABE90F89C1260
:1027800080F89D12042180F89C120020704710B53B
:10279000D0F8C002FEF7F8F8BDE81040FFF728BEF9
:1027A0000A7802704A7842708A78CB7802EB03226A
:1027B00042800A794B7902EB032282808A79C979B7
:1027C00002EB0121C18070470246002011B1C2F81E
:1027D000B41270470220704710B5D0F8B42202241A
:1027E0001AB11268904700B90024204610BD0000BD
:1027F00070B50E461E4D897804462970012931D8DE
:1028000094F89C0202280BD003280FD031462046B2
:10281000FFF7A5FC29782046BDE87040FFF788BC8B
:10282000D9B10320616084F89C0209E071B160684D
:10283000884212D0C1B22046FFF77AFC2978616045
:102840002046FFF7C9FF02280CD006E0022084F8DA
:102850009C0220466160FFF76BFC2046BDE870409B
:10286000FFF7AFBC31462046BDE87040FFF777BCAC
:10287000A800002010B5FFF778FF002010BD2DE95B
:10288000F0410A78002712F0600208D0202A01D017
:10289000402A70D1D0F8B422926890476DE04A780F
:1028A000002301260A2A66D2DFE802F0405D655760
:1028B000650805652C29FFF703FD5EE0044688885E
:1028C000D8B9C888C8B94888802816D200F07F05D2
:1028D00094F89C02032810D084F89E522946204682
:1028E000FFF704FF2046FFF76CFC1DB1022084F8BF
:1028F0009C0242E084F89C623FE020463BE0FFF708
:1029000077FF3AE0CA88012A35D190F89C22012A43
:1029100004D0022A02D0032A2DD104E0012200F1C2
:102920000801836016E00122011D13E090F89C224B
:10293000012A03D0022A01D0032A1CD1CA88022A04
:1029400019D1C660D0F8A41209B10321C1600222D6
:1029500000F10C01FFF728FC0FE0498801290CD198
:10296000C0F8A46211E090F89C22012A08D0022A43
:1029700006D0032A04D0FFF7F2FB3846BDE8F08109
:1029800049880129F9D1C0F8A432FFF71AFCF4E70D
:102990002DE9F0410A46044613780027097913F01F
:1029A00060000AD0202801D0402850D1D4F8B402C9
:1029B00011468368204698478FE0C3F341100128F1
:1029C00006D05078D0B301282AD003283FD107E0A1
:1029D000D4F8B402114683682046BDE8F041184798
:1029E00094F89C02022802D0032872D10AE071B345
:1029F00080296ED02046FFF7AFFE80212046FFF7EA
:102A0000ABFE6AE0508838B931B1802904D0D08853
:102A100010B92046FFF7A0FE2046FFF7D2FB5CE08E
:102A200094F89C020228E2D0032852D1508898BB27
:102A30004806F1D02046FFF7FCFCEDE7FFE794F8ED
:102A40009C020026022803D0032842D112E040E075
:102A500009B180293DD1080601F07F0000EB80001C
:102A600004EB800101D5143101E001F5AA710222C5
:102A70000E602AE0080601F00F0000EB800004EB76
:102A800080000AD5806920B301F07F0000EB800050
:102A900004EB800514350BE01FE0D0F85801C0B1FD
:102AA00001F07F0000EB800004EB800505F5AA75BE
:102AB00041B1802906D02046FFF7AEFD10B10120BC
:102AC000286000E02E60022229462046FFF76CFBBA
:102AD00003E011462046FFF742FB3846BDE8F0818F
:102AE00070B5054608780C4610F0600203D0202A25
:102AF00001D0402A16D195F89C22012A03D0022A3F
:102B000001D0032A0ED1207901280BD8D5F8B402C0
:102B1000826828469047E188014306D12846FFF79E
:102B200050FB02E02846FFF71AFB002070BD7047FB
:102B300000487047F405002070B50A78012302F0C0
:102B40000F054E78AB401B4CD0F81C58012E17D007
:102B500045EA0343C0F81C3800EB4210D0F8002BC4
:102B600012040BD4D0F8002B0B89C978C3F30A03E5
:102B70001A4344EA81410A43C0F8002B002070BD8B
:102B80009BB21D43C0F81C5800EB4210D0F800392E
:102B90001B04F3D4D0F800390D89C978C5F30A05B0
:102BA00089042B4341EA82510B432343C0F8003987
:102BB000E4E7000000800010D0F800196FF30A016C
:102BC000C0F80019D0F8041841F48071C0F8041856
:102BD0000020704710B5044604980B9901280BD0CB
:102BE000E06840F04000E060204600F01FF8A16B74
:102BF00041F48031A16310BDA06B20F48030A0634C
:102C0000E068094A1040E060E06820F44010E060AD
:102C1000012903D1E06840F48010E0602046BDE85F
:102C2000104000F003B80000BFFFBDFF0B4A0021B9
:102C3000491C91420AD80369002BF9DA0369002183
:102C400043F001030361491C914201D903207047FD
:102C50000369DB07F7D1002070470000400D030037
:102C600070B50B78012403F00F054E7804FA05F2D5
:102C7000D0F83C58012E17D025EA0242C0F83C2873
:102C8000D0F81C28097801F00F018C4022EA044199
:102C9000C0F81C1800EB4310D0F8001B0E4A11407E
:102CA000C0F8001B002070BD92B29543C0F83C589C
:102CB000D0F81C28097801F00F018C40A1B28A439A
:102CC000C0F81C2800EB4310D0F80019034A11404B
:102CD000C0F80019E6E700000078F3EF007833EC65
:102CE00010B5D0F8041821F00201C0F80418032030
:102CF000FDF75EFB002010BD10B5D0F8041841F0C0
:102D00000201C0F804180320FDF752FB002010BD9B
:102D10002DE9F04700270446DDF83CA0DDF82C90B3
:102D20000D4638463E4604EB8001C1F80461401C64
:102D30000F28F8D3A06B40F400212046A163C4F80B
:102D4000006ED4F80018C4F80018D4F8001841F048
:102D50000301C4F80018102100F042FA00B1012765
:102D6000204600F02DFA00B10127C4F81068C4F81D
:102D70001468C4F81C6800204FF000634FF09042C4
:102D80004FF67F3C14E004EB4011D1F80089B8F114
:102D9000000F06DA10B1C1F8002904E0C4F80039C8
:102DA00001E0C1F80069C1F81069C1F808C9401C08
:102DB0008542E8D8002014E004EB4011D1F8008BE4
:102DC000B8F1000F06DA10B1C1F8002B04E0C4F826
:102DD000003B01E0C1F8006BC1F8106BC1F808CBF3
:102DE000401C8542E8D8D4F8100820F48071C4F85B
:102DF0001018A6616FF080406061A06940F010007B
:102E0000A061A06909490843A061B9F1000F03D08E
:102E1000A06940F00800A061BAF1010F03D1A069D8
:102E200003490843A0613846BDE8F08700383C807C
:102E300004000040816821F001018160002070479A
:102E400030B50C784D78384BE2B200EB4212012DD0
:102E500024D0D2F8100B6FF31200C2F8100BD2F886
:102E6000100B1840C2F8100B486908B18868486117
:102E7000D2F8100B40F40020C2F8100BD2F8100B5F
:102E80008968C1F312010843C2F8100BD2F8000B95
:102E900040F00440C2F8000B002030BD4D69002D09
:102EA000D2F8105931D06FF31205C2F81059D2F888
:102EB00010591D40C2F810594D698B689D4200D9C8
:102EC0004B61D2F8103943F40023C2F81039D2F81C
:102ED00010394D69C5F312052B43C2F8103900EBC8
:102EE0004412D2F8003943F00443C2F800394A6969
:102EF000002AD1D0D0F83428097801F00F0301213D
:102F000099400A43C0F83428C6E71D40C2F810595A
:102F1000D2F8103943F40023C2F81039D2F810392E
:102F20006FF31203D9E70000FFFF07E0016C0F4ABF
:102F3000914203D9D0F8001B002914DB0021C0F80E
:102F4000101BD0F8101B41F40021C0F8101BD0F862
:102F5000101B41F01801C0F8101BD0F8101B41F0F5
:102F6000C041C0F8101B0020704700000A30544FC9
:102F70004A780B78012A00EB43100BD0D0F8002BD5
:102F800022F40012C0F8002BC978032914D00229BA
:102F900012D017E0D0F8002922F40012C0F800295E
:102FA000C978032901D002290CD1D0F8001941F0C9
:102FB0008051C0F8001905E0D0F8001B41F08051A5
:102FC000C0F8001B002070470A784B78D1B200EBA4
:102FD0004110012B12D0D0F8001B002906DB2AB1CA
:102FE000D0F8001B21F08041C0F8001BD0F8001B76
:102FF00041F40011C0F8001B00207047D0F8001900
:10300000002906DB2AB1D0F8001921F08041C0F870
:103010000019D0F8001941F40011C0F80019EBE7CD
:1030200070B50D784E78624BEAB26FF0604400EBF9
:103030004212012E27D0D2F8105B6FF31205C2F8AE
:10304000105BD2F8105B1D40C2F8105B4D69002D7B
:1030500073D08B681D446D1EB5FBF3F3D2F8105B83
:103060009BB204EAC3442543C2F8105BD2F8104B6C
:103070008D685D43C5F312031C43C2F8104BC97839
:1030800001296FD08CE04E691EB3D2F810696FF33E
:103090001206C2F81069D2F810691E40C2F8106911
:1030A0004E698B681E44761EB6FBF3F304EAC343F5
:1030B000D2F810492343C2F81039D2F810394C69BC
:1030C000C4F312042343C2F81039CB78012B10D07B
:1030D0001BE0D2F810491C40C2F81049D2F8103950
:1030E00043F40023C2F81039D2F810396FF31203F9
:1030F00009E0D2F8103923F0C043C2F81039D2F8F1
:10310000103943F00053C2F8103900EB4512D2F8E1
:10311000003943F00443C2F80039CB78012B0DD0BD
:103120004A697AB3D0F83428097801F00F030121F5
:1031300099400A43C0F8342838E014E0D0F8083841
:10314000DB05D2F8003902D443F0005301E043F02C
:103150008053C2F800398A8A93B20A78C96800F0AD
:1031600039F923E00FE0D2F8103B8C68C4F3120465
:103170002343C2F8103BD2F8103B43F40023C2F8BB
:10318000103B7CE712E0D0F80808C005D2F8000B2D
:1031900002D440F0005001E040F08050C2F8000B33
:1031A000D2F8000B40F00440C2F8000B002070BDC4
:1031B000FFFF07E0816841F0010181600020704756
:1031C000002110220261054A491C914201D90320C5
:1031D00070470369DB06F7D400207047400D0300F9
:1031E0000022202343EA811101610549521C8A42D1
:1031F00001D90320704703699B06F7D4002070476C
:10320000400D0300D0F8080800F00600022803D0A3
:10321000062801D00F20704702207047406900F057
:1032200001007047D0F81818D0F81C08084080B288
:103230007047D0F81818D0F81C080840000C7047E8
:1032400010B5D0F81038D0F8342801F00F0400EB96
:103250004110E24002F00102D0F8080943EAC2122C
:10326000104010BD00EB4111D1F8081BD0F8140834
:103270000840704741698069084070470346D21C86
:1032800010B508469208002103F5805302E01C683F
:10329000491C10C09142FAD310BD10B5C26822F08B
:1032A000C042C260012902D029B1012010BDC1680D
:1032B00041F0005102E0C16841F08041C16032201C
:1032C000FDF776F8002010BDD0F8002822F4FE6249
:1032D000C0F80028D0F800284FF4FE6303EA01117B
:1032E0000A43C0F80028002070470000022A2ED1AF
:1032F000264A274B0A449A4201D20F2138E0254A38
:10330000254B0A449A4201D20E2131E0234A244B34
:103310000A449A4201D20D212AE0224A224B0A4451
:103320009A4201D20C2123E0204A214B0A449A42BE
:1033300001D20B211CE01F4A1F4B0A449A4201D2C2
:103340000A2115E01D4A1E4B0A449A4201D2092166
:103350000EE01C4A1C4B0A449A4201D2082107E0A5
:103360001A4A11441A4A914201D2072100E006216B
:10337000C26822F47052C260C2684FF4705303EA0C
:1033800081210A43C260002070470000405327FF9C
:1033900000350C00401E1BFF40420F0000DC0BFFFD
:1033A000804F1200808CF9FE20D6130060B6E5FE37
:1033B00060E3160000D3CEFE40771B00C05BB3FE77
:1033C000C091210000CA91FE20753800E05459FEDA
:1033D000E09C410010B5DB1C9C0800EB0230002390
:1033E00000F5805002E004C902605B1CA342FAD3DE
:1033F000002010BDFEE70907090E002804DB00F1DC
:10340000E02080F80014704700F00F0000F1E02089
:1034100080F8141D704702E008C8121F08C1002A76
:10342000FAD170477047002001E001C1121F002A45
:10343000FBD1704710B5002202212C2000F088FB40
:103440000222BDE8104011462C2000F081BB10B5CF
:1034500004466D2240F606012E2000F079FB41F66D
:10346000060114B140F2076201E041F20762BDE8D3
:1034700010402E2000F050BB10B5002000F007F8DF
:1034800000220421BDE81040362000F045BB38B5CD
:1034900004466B4602220021362000F0C7FA0F2CAA
:1034A0002DD2DFE804F01008162C2C2C2C1E3A2C00
:1034B0002C454A4F560000208DF800009DF8010071
:1034C00000F0FE0019E09DF8000000F0FC00401C38
:1034D00004E09DF8000000F0FC00801C8DF8000066
:1034E0000DE09DF8000000F0B30040F048008DF8BA
:1034F00000009DF8010040F080008DF801006B464F
:1035000001220021362000F02BFB0122114636203B
:103510000DF1010300F024FB38BD9DF8000000F020
:10352000B3008DF800009DF8010000F07F00E4E793
:103530009DF8010040F00200DFE79DF8010000F077
:10354000FD00DAE79DF8000000F0CF0040F0200019
:10355000C4E701208DF800000320CEE710B50E204F
:10356000FFF795FF4FF4004206212D2000F0D4FA1A
:10357000012000F01BF8BDE810400120FFF787BFD5
:1035800010B5024604212D2000F0C6FA03220621C0
:103590002D2000F0DDFA002206212D2000F0D8FABF
:1035A0000A21BDE810402D2000F02BBAFEF706BC22
:1035B000002801D000F09ABB704710B500F0A4FBC2
:1035C000040001D000F07EFB204610BD1CA000F0DE
:1035D0002DFB00F019FC00F0BBFB002000F04CF9C3
:1035E000401C28D000F0AAFB194800F039F8184C0C
:1035F0004FF47A750C34164900220C310C2000F07F
:10360000CEFA002211460C2000F0DAFA002000F079
:1036100057FA00210F2000F0F4F90006F9D58022B6
:1036200000210F2000F085FA2846FEF7C7FB6078DE
:10363000401C6070DFE707A000F0F8FAFEE700002A
:1036400053494D504C452054582076312E320000BD
:1036500068000020494E4954204641494C454400E9
:103660002DE9F05F04460578407977494FF000096D
:10367000C84631F810706078401EC6B2042D76D06E
:10368000072D74D00020714A8246E3791068002B20
:1036900001696ED021F480010161217A8172016992
:1036A000934621F440320261217A4FF4403303EA19
:1036B00001410A4302610021042000F03AFA3A462F
:1036C00042F604012E2000F027FA3046FFF7BFFE35
:1036D0005F4F6049785D51F8202007212B2000F0D2
:1036E00028FA785D5C490A5C0B212B2000F030FA47
:1036F0005A49282011F80A200B2100F029FA785D98
:10370000574951F820200C21282000F012FAE079C6
:10371000544901EB8000A17930F8112002212720C3
:1037200000F0FAF95048042130F81620272000F064
:10373000F3F9E07910B3A078042825D020220621DF
:10374000272000F0E9F928222621272000F000FA9E
:103750004648E17800EB061050F821200821272088
:1037600000F0E7F96089B0B118E000E001E0012065
:1037700089E741F48001FF0801618EE76422062198
:10378000272000F0C9F9E3E710220621272000F0E6
:10379000C3F91022D8E741F24100608182B22021B2
:1037A000272000F0B9F9324F0C2123203A6800F0AD
:1037B000C0F907EB460004218288232000F0ACF911
:1037C000A07950B1E0792B490A5C0021212000F05A
:1037D000BFF94FF003094FF0010805F00F0029076A
:1037E00040EA116062784FF4402101EA82410843C7
:1037F0004FF4401202EA095108434FF4003202EA42
:103800004841084321794FF0F86202EA81510843A8
:10381000617940EAC16200211F2000F08AF9A07896
:1038200061780843E179000440EA4132DBF80000A6
:103830000021C260082000F07CF9BDE8F05F422260
:1038400000210D2000F084B9F43F0008640000203E
:10385000783F0008983F0008B03F0008B63F0008D6
:10386000803F0008C43F0008D03F0008D43F000854
:10387000B83F0008C03F000870B5584D0446002608
:10388000286806754675C6828662C6620663466308
:1038900000F0C8F85249884201D0881770BDA007CF
:1038A00002D400F0E9F802E014F0F80F02D1002091
:1038B000FFF7EDFD04220021242000F049F9A007C4
:1038C00010D40420FFF75CFE10F0FF0F18D0022286
:1038D00012212D2000F03CF92868C18A41F4805162
:1038E000C1820DE03021282000F08BF8B0F1883F34
:1038F00004D02868C18A41F48051C18220070BD5C9
:103900001E20FFF73DFE2A6880B2010AD172A1078E
:1039100009D4C10603D003E02868C67203E0102072
:10392000C0B200F0A0F8E00605D50620FFF728FE9B
:103930002968086001E028680660A00605D5072010
:10394000FFF71EFE2968486001E0286846606006AF
:1039500005D50820FFF714FE2968087201E02868E1
:103960000672200605D50920FFF70AFE296848726D
:1039700001E028684672A0070FD4E00702D0FFF7E5
:10398000EDFD0CE00521362000F02CF820F400724B
:103990000521362000F0C0F806E0600704D428684E
:1039A000C18A41F40061C1820120FFF770FD00224D
:1039B0000A212C2000F0CCF80021042000F021F88E
:1039C00029680861C0F3014088720021082000F0D6
:1039D00018F82968C860002070BD0000640000204D
:1039E0003001CADE08B589B280B26B46022200F00F
:1039F0001DF89DF800009DF8011000EB012080B239
:103A000008BD38B5002489B280B26B46042200F0AC
:103A10000DF803216846425C491E02EB0424FAD5E6
:103A2000204638BD00210846FFF7EBBF08B551B16D
:103A300040F040008DF80000C8B27F2907D88DF80B
:103A4000010002200BE08DF80000012007E040F0AB
:103A500080008DF80100C8098DF802000320694636
:103A600000F08CF908BD00F01F0040F060020E214C
:103A70002B2000F06DB8000010B5FFF7FDFC002210
:103A800011462C2000F048F8002206212C2000F0DE
:103A90005FF8FFF7CFFC00220321362000F058F832
:103AA0000120FFF783FDF0220321362000F050F8BB
:103AB000024900200968487510BD0000640000201C
:103AC00010B500242146820704D5124B8021012223
:103AD0001B685A75C00714D041F0060200210D2062
:103AE00000F036F803210F20FFF77CFF10F4816F00
:103AF0000DD0402200210D2000F02AF84FF0FF34B5
:103B000005E041F0020200210D2000F021F82046DE
:103B100010BD00006400002008B589B28DF80020B7
:103B2000120A8DF8012080B26B46022200F018F8CC
:103B300008BD38B500236C46E254120A5B1C042B06
:103B4000FADB89B280B22346042200F009F838BDBE
:103B500007B589B280B202AB012200F001F80EBDB8
:103B600008B551B140F0C0008DF80000C8B27F29FF
:103B700009D88DF8010002200DE040F080008DF89A
:103B80000000012007E040F080008DF80100C80926
:103B90008DF802000320694600F0BCF908BD10B59D
:103BA0000B4611181446B1F5806F06D8821E2146C7
:103BB0000920FFF7D5FF002010BD4FF0FF3010BDEA
:103BC000890541EAC23204490968C96801430A43C8
:103BD00000210820FFF7ADBF640000201FB50FA033
:103BE000114C07C88DE8070000208DF80C00014635
:103BF0006A46092000F052F9641EFDD202208DF8B9
:103C00000C0003AA0021012000F048F901208DF8E2
:103C10000C0003AA002100F041F91FBD3914556DB5
:103C200078380C0106000000A086010038B5044673
:103C300002208DF800006A460021012000F02EF9D4
:103C400001208DF800006A46002100F027F9224685
:103C50000121282000F022F938BDFCF7D3FCFEF743
:103C6000B5F8FDF7DBFEFDF79BFFFDF7B5FFFDF7B0
:103C7000CFFF002203210620FCF730FD0620FCF7D1
:103C800020FD002204211720FCF728FD1720FCF757
:103C900018FD002207214320FCF720FD4320FCF7FC
:103CA00010FD002000F0CAF8FFF798FFFFF78EFC28
:103CB000FEE7000010B520210148FCF78BFC10BD89
:103CC000000C0140172000280FDB00F01F0201212B
:103CD00091404209920002F1E022C2F88011BFF344
:103CE0004F8F00BFBFF36F8F00BF704717200028B2
:103CF00009DB00F01F02012191404209920002F10C
:103D0000E022C2F80011704700B51720FCF73DFB18
:103D100000BD000010B500224FF400610148FCF71F
:103D20005EFC10BD000C014010B50122D10202481A
:103D3000FCF755FC10BD0000000C014010B5082137
:103D40000248C161FDF7EBFC10BD000080020020BD
:103D500010B520210248C161FDF7E1FC10BD000053
:103D60008002002010B502E0034800688047FFF79A
:103D7000A1FF0028F8D110BD940000202DE9F05FCC
:103D80001E4615468A460746FFF717FC81461C4823
:103D9000FDF7C2FC0128FAD1002210211948FCF7D6
:103DA0001EFC0024DFF858804FF0FF3B08E000BF06
:103DB0000AEB04015B4601221148FDF74FFD641C2C
:103DC000BC42F5DB002240466D1E0ED301688B68B5
:103DD000DB439B07FBD4CA6001688B68DB43DB07CE
:103DE000FBD1C96806F8011BEEE701221021054846
:103DF000FCF7F5FB4846FFF7DBFB0020BDE8F09F32
:103E000080020020000801401FB501200090112011
:103E100001900220039069460748FCF7F5FA00225A
:103E200001210548FCF7DBFB002000F007F8022029
:103E3000FDF7C4FF1FBD0000000801401FB5044688
:103E400094B101200090134801900020029069462F
:103E50001148FCF7D9FA0620FCF733FC00220521B3
:103E60000620FCF73BFC13E00620FCF719FC0120C0
:103E700000901120019000200290032003906946D9
:103E80000548FCF7C1FA012211460348FCF7A7FBDD
:103E90001FBD000000001110000801402DE9F04195
:103EA00090460E4605461948FDF736FC0128FAD122
:103EB000002416B1FFF738FF08E0012D04D198F86F
:103EC0000000800700D00124FFF724FF104F4FF4BB
:103ED0008056002231463846FCF781FBAAB24FF0EB
:103EE000FF3341460948FDF7B9FCFFF713FF0122F4
:103EF00031463846FCF773FB002C04D0BDE8F04196
:103F00000220FDF75BBFBDE8F0810000D802002071
:103F1000000C01402DE9F047984615468A46814637
:103F2000FFF74BFB04461248FDF7F6FB0128FAD1D8
:103F3000104E002210213046FCF751FB4FF0FF37A6
:103F40003B464A4651460A48FDF788FCAAB23B4622
:103F500041460748FDF782FC012210213046FCF75C
:103F60003EFB2046FFF724FB0020BDE8F087000061
:103F70008002002000080140000001020304000547
:103F8000405C0000A05C0400C06C0800805C040081
:103F9000E03F1E00E07D1E00070400090805400800
:103FA00009104008080540081D0400081D04000809
:103FB0001E265626BEBED8BC07A9022570889B883F
:103FC000401008000A00160001000600010002006F
:103FD00087008D003C001A3152001A339A001A35BE
:103FE0001D011A376B003B31BE003B335E013B3590
:103FF00096023B37000098599859EA518E421E4567
:10400000142E0080EA51F4283233E03A703DE03A51
:10401000C235842BC2353233C235C235AE47E03AA1
:104020005038A230503800000000000000000102AB
:10403000030406070809000058400008000000209B
:10404000BC010000940200083C410008BC010020B3
:10405000543100002634000813F921140829221BCA
:104060000835041A5D041A89041AD9141A050817A8
:10407000040309041201140202021640830440578B
:10408000260201020301031A1A0313F5021B08F1A9
:10409000041AED04132103420813940E1808200299
:1040A00002080209093D11142104C5A00944454331
:1040B00041574156451ACC24C1292A821044A24AAC
:1040C00004130A0632022A401C1C0902438F111CE9
:1040D000C032091B1B01020B130524161001052415
:1040E00001100901042402020524061701070582B4
:1040F00003081C100904C5320A1D07050102432CE0
:10410000070581070938442A40072A8107112B092E
:1041100007440A3B0444139D1F1B08050413852014
:1041200042081A490C138D1E1B08D704C11A8518A2
:0C4130001A79041A91041A6D04000000B2
:04000005080001519D
:00000001FF
